:020000040800F2
:1000000000000820214300081139000819390008B0
:1000100069390008D5390008553A00080000000089
:10002000000000000000000000000000510A01086C
:100030000D3B000800000000610C0108C90C01081C
:1000400071430008714300087143000871430008C0
:1000500071430008714300081B3B0008714300080E
:1000600071430008714300087143000871430008A0
:100070007143000871430008714300087143000890
:100080007143000871430008714300087143000880
:100090007143000871430008714300087143000870
:1000A0007143000871430008714300087143000860
:1000B0007143000871430008714300087143000850
:1000C0007143000871430008714300087143000840
:1000D00071430008293B000871430008453B0008B4
:1000E000593B000871430008714300087143000840
:1000F0007143000871430008714300087143000810
:10010000714300087143000871430008693B00080F
:1001100071430008714300087D3B000871430008EB
:10012000913B000871430008A53B0008714300089B
:1001300071430008714300087143000871430008CF
:1001400071430008714300087143000871430008BF
:10015000714300087143000871430008B93B00086F
:100160007143000871430008CD3B0008E13B0008E3
:1001700071430008F53B00087143000800000000CF
:10018000714300087143000871430008714300087F
:10019000714300087143000871430008714300086F
:1001A000714300087143000871430008714300085F
:1001B000714300087143000871430008714300084F
:1001C00071430008714300080000000071430008FB
:1001D000714300087143000871430008714300082F
:1001E000714300087143000871430008714300081F
:0801F00071430008714300088F
:1002000010B5054C237833B9044B13B10448AFF350
:1002100000800123237010BDC002002000000000F8
:10022000D866010808B5034B1BB103490348AFF377
:10023000008008BD00000000C4020020D86601084C
:1002400001F0FF01102A2BDB10F0070F08D010F887
:10025000013B013A8B422DD010F0070F42B3F6D18B
:10026000F0B441EA012141EA014122F007047FF0A4
:1002700000070023F0E80256083C85EA010586EAFB
:10028000010685FA47F5A3FA87F586FA47F6A5FA37
:1002900087F68EB9EED1F0BC01F0FF0102F0070243
:1002A00032B110F8013B013A83EA010313B1F8D1EE
:1002B0000020704701387047002D06BF35460338CF
:1002C000073815F0010F07D1013015F4807F02BF08
:1002D000013015F4C03F0130F0BC0138704700BF59
:1002E000034613F8012B002AFBD1181A0138704776
:1002F00053B94AB9002908BF00281CBF4FF0FF318D
:100300004FF0FF3000F088B9ADF1080C6DE904CE74
:1003100000F006F8DDF804E0DDE9022304B07047E0
:100320002DE9F047089D8E4604468846002B4AD1A9
:100330008A42174662D9B2FA82F64EB1C6F120035C
:1003400001FA06F820FA03F3B74043EA0808B4407C
:100350004FEA174E1FFA87FCB8FBFEF1230C0EFB89
:10036000118843EA084301FB0CF29A4209D9FB18B1
:1003700001F1FF3080F0EA809A4240F2E7800239D2
:100380003B449A1AA3B2B2FBFEF00EFB102243EAE2
:10039000024300FB0CFC9C4509D9FB1800F1FF321D
:1003A00080F0D6809C4540F2D3803B44023840EA3E
:1003B0000140A3EB0C0300211DB1F3400022C5E96D
:1003C0000032BDE8F0878B4205D90DB1C5E90001C7
:1003D00000210846F5E7B3FA83F1002946D17345B9
:1003E00002D3824200F20581841A6EEB03020120DF
:1003F0009046002DE5D0C5E90048E2E7002A00F06C
:100400009080B2FA82F6002E40F0A4808A1A030C83
:100410004FEA174E80B2BCB20121B2FBFEFC0EFBCC
:100420001C2243EA024304FB0CF29A4207D9FB1850
:100430000CF1FF3802D29A4200F2E080C4469B1AC7
:10044000B3FBFEF20EFB123340EA034302FB04F45B
:100450009C4207D9FB1802F1FF3002D29C4200F205
:10046000CA8002461B1B42EA0C40A5E7C1F12006E8
:100470008B4022FA06F71F430EFA01F420FA06F326
:100480002EFA06FE4FEA1749234300FA01F81FFA35
:1004900087FCBEFBF9F01C0C09FB10EE44EA0E448D
:1004A00000FB0CFEA64502FA01F209D93C1900F145
:1004B000FF3A80F09C80A64540F2998002383C4487
:1004C000A4EB0E041FFA83FEB4FBF9F309FB1344FB
:1004D0004EEA044403FB0CFCA44508D93C1903F183
:1004E000FF3E80F08280A4457FD9023B3C4443EA32
:1004F0000040A4EB0C04A0FB02EC64457346E1460B
:1005000062D35FD05DB1B8EB030264EB090404FA77
:1005100006F622FA01F31E43CC40C5E9006400212F
:100520004FE7B1FBF2FC010C41EA0E4180B240EA18
:1005300001423B4638463C46B846BE462026B1FB03
:10054000F7F1A2EB080241EA0C4166E7014618E721
:1005500010462CE7C6F120022EFA02F3B740B14054
:1005600020FA02F24FEA174E0A43B3FBFEF8BCB280
:100570000EFB1833110C41EA034108FB04F9B040AB
:1005800089454FEA104380B23ED9791808F1FF3C03
:1005900001D289451FD8A1EB0901B1FBFEF909FB86
:1005A00004F80EFB191192B242EA0142424529D2E7
:1005B000BA1809F1FF31C4D24245C2D2A9F10201F1
:1005C0003A44BEE7F0459DD2BEEB02036CEB070C4C
:1005D0000138E14696E7A7EB09094944A8F1020C66
:1005E000B1FBFEF909FB04F8DBE773467FE75046F1
:1005F00066E70846FDE63B44023A33E7ACF1020CFD
:100600003B441CE749469CE7A1EB0901C446B1FB0A
:10061000FEF909FB04F8C4E7704700BF80B487B057
:1006200000AF786039603B687B617B683B61202369
:10063000FB60BFF34F8F00BF0BE00D4A3B69C2F870
:100640005C32FB683A6913443B617A69FB68D31AF0
:100650007B617B69002BF0DCBFF34F8F00BFBFF3E2
:100660006F8F00BF00BF1C37BD465DF8047B70472D
:1006700000ED00E080B582B000AF786039607B6843
:10068000002B02D03B68002B04D12A4B03221A70A6
:1006900000234AE07B683A681A60274B1A687B6837
:1006A000DA60264B1A687B681A617B68DB68002B6E
:1006B00003D07B681B69002B04D11E4B03221A70E8
:1006C000002332E07B680A225A607B6820334FF4B3
:1006D0008C620021184614F037FA7B6818687B6832
:1006E00003F518734FF40072194609F0C5FA034672
:1006F000002B04D00F4B04221A70002315E07B68F6
:100700001B681B6810221A627B681B681B681A68CA
:100710007B681B681B6842F010021A60054B0022C0
:100720001A707B6801221A72012318460837BD46E9
:1007300080BD00BFDC020020106D0020486C00204E
:1007400080B586B000AFF860B9601346FB71FB68F6
:10075000002B02D0BB68002B04D1164B03221A7069
:10076000002322E0FB681B68FA7992B2B968184648
:1007700009F024FA0346FB75FB7D002B04D00D4BDA
:1007800004221A70002310E0FB68DA68FB685B68DB
:10079000194610460DF0B0F80346002B04D0054B67
:1007A00001221A70002300E0012318461837BD46C5
:1007B00080BD00BFDC02002080B586B000AFF860CD
:1007C000B9607A60FB68002B05D0BB68002B02D0B3
:1007D0007B68002B04D1294B03221A70002348E0C8
:1007E000FB681869FB685B6807F1160100220DF0D1
:1007F0003BFA0346002B04D0204B01221A70002341
:1008000037E00023FB751BE0FB68B3F828329BB28E
:100810001946FB7DBA681344FA680A4492F8282006
:100820001A70FB68B3F828329BB201339BB2C3F352
:1008300008039AB2FB68A3F82822FB7D0133FB75FD
:10084000BB7DFA7D9A42DFD3BA7D7B681A707B68E4
:100850001B781946B86800F0ADF8034683F0010331
:10086000DBB2002B04D0054B02221A70002300E0FB
:10087000012318461837BD4680BD00BFDC020020AA
:10088000B0B5ADF5047D02AF07F50274A4F50174AF
:1008900020600C461046194607F50273A3F20523A3
:1008A00022461A7007F50273A3F2062302461A7055
:1008B00007F50273A3F207230A461A7007F50273BD
:1008C000A3F501731B68002B07D0D7F81832002B53
:1008D00003D097F81C32002B04D1204B03221A704E
:1008E000002336E007F50273A3F206231B7887F88E
:1008F0000C3197F81C2207F586730133D7F81812CC
:10090000184614F00EFA97F81C320133DBB207F5E3
:10091000867507F50272A2F20722147807F50272B3
:10092000A2F20522117807F10C0000932B46224613
:1009300000F068F8034687F8073297F8072207F1B6
:100940000C0107F50273A3F501731868FFF7F8FEB1
:100950000346184607F50277BD46B0BDDC0200200D
:1009600080B485B000AF78600B46FB707B68002BCD
:1009700002D0FB78032B01D8002315E00023FB7382
:100980000223BB7309E0BB7B7A6813441A78FB7BB4
:100990001344FB73BB7B0133BB73BA7BFB789A4276
:1009A000F1D3FB7BDB43DBB218461437BD465DF861
:1009B000047B704780B584B000AF78600B46FB7055
:1009C0007B68002B02D0FB78042B01D8002315E0B4
:1009D000FB78013BDBB219467868FFF7C1FF03469D
:1009E000FB73FB78013B7A6813441B78BB73FA7B7B
:1009F000BB7B9A420CBF01230023DBB218461037A1
:100A0000BD4680BD90B587B000AFF8607B600B46F7
:100A1000FB721346BB72FB68002B01D1002333E04D
:100A2000FB68FF221A70FB68FF225A70FB68FA7A93
:100A30009A7097F828300233DAB2FB68DA70FB68F4
:100A4000BA7A1A717B68002B0BD097F82830002BEC
:100A500007D0FB68053397F828207968184614F00A
:100A600060F997F828300533FB7597F82840FB7D2F
:100A70001946F868FFF774FF03461A46FB682344DB
:100A80005A71FB7D0133DBB218461C37BD4690BD61
:100A900080B586B000AF78607B681B681B68DB6937
:100AA00003F01003102B78D17B681B681B681022A1
:100AB0001A627B6820337B617B681B685B6F1B68F5
:100AC0005B689BB2C3F500737B827B69B3F84034EB
:100AD0009BB27A8A9A4207D37B69B3F840349BB2BF
:100AE0007A8AD31A9BB209E07B69B3F840349BB28F
:100AF0007A8AD31A9BB203F500739BB23B823B8A7E
:100B0000002B4CD07B69B3F840349BB2C3F5007323
:100B10009BB23A8A9A4207D37B69B3F840349BB2BE
:100B2000C3F500739BB200E03B8AFB817B69B3F89D
:100B300040349BB203F510737A691344FA89114665
:100B40001846FFF76BFD7B69B3F840349BB203F5A1
:100B500010737A691344FA891946786800F024F80A
:100B60003A8AFB899A4213D97B6903F510703A8A55
:100B7000FB89D31A1946FFF751FD7B6903F5107104
:100B80003A8AFB89D31A9BB21A46786800F00CF8AF
:100B90007B697A8AA3F8402402E000BF00E000BF2E
:100BA0001837BD4680BD000080B588B000AFF86042
:100BB000B9601346FB80FB682033BB610023FB83D5
:100BC000D8E0BB695B79DBB2032B4CD8FB8BBA68EE
:100BD0001A44BB695B79DBB2591CC8B2B969487168
:100BE00019461278BB690B445A70BB695B79DBB25A
:100BF000013B032B00F2BA8001A252F823F000BFA0
:100C00005B0C0008110C00085B0C0008310C00089C
:100C1000BB695B78FF2B03D1BB699B78FF2B1ED090
:100C2000BB699A78BB695A70BB6901225A7116E098
:100C3000BB691A79BB699A71BB690022DA71BB6919
:100C40009B79DBB2002B04D0BB699B79DBB2FB2B19
:100C500007D9BB6900225A7103E000BF86E000BFDC
:100C600084E000BF82E0BB69DB79DAB2BB699B79C3
:100C7000DBB29A427BD2BB69DB79DBB21F2B0BD88C
:100C8000FB8BBA681344BA69D279D2B211461A788A
:100C9000BB690B4483F80C22BB69DB79DBB20133FF
:100CA000DAB2BB69DA71BB69DB79DAB2BB699B790D
:100CB000DBB29A425BD100237B771AE07B7FBA6973
:100CC000B2F80A2292B21146BA6913445A78BB6943
:100CD0000B441A72BB69B3F80A329BB201339BB260
:100CE000C3F308039AB2BB69A3F80A227B7F0133DE
:100CF0007B777B7F032BE1D900233B771BE03B7F96
:100D0000BA69B2F80A2292B21146BA69134493F84A
:100D10000C22BB690B441A72BB69B3F80A329BB24E
:100D200001339BB2C3F308039AB2BB69A3F80A224A
:100D30003B7F01333B77BB699B79DBB23A7F9A42B9
:100D4000DDD3BB699B79DBB20433DBB2FB75FB6897
:100D5000186907F11701002300220CF011FFBB698D
:100D600000225A71BB690022DA7100E000BFFB8BE0
:100D70000133FB83FA8BFB889A42FFF422AF00BF5A
:100D800000BF2037BD4680BD80B5C8B002AF07F5B3
:100D90008C73A3F58A7318600A4607F58C73A3F267
:100DA00015131A7007F58C73A3F58A731B68002B53
:100DB00011D007F58C73A3F58A731B681B7A83F037
:100DC0000103DBB2002B06D107F58C73A3F21513D8
:100DD0001B78152B04D9764B03221A700023E1E00F
:100DE00007F58C73A3F21513197807F11800002387
:100DF000009300230122FFF705FE034687F8173111
:100E000097F8172107F1180107F58C73A3F58A737A
:100E10001868FFF795FC034683F00103DBB2002B53
:100E20001FD007F58C73A3F215131A786149134686
:100E30005B0013445B000B4402331B7807F58C7294
:100E4000A2F21512127843F00103D8B259491346A1
:100E50005B0013445B000B44023302461A7000230C
:100E6000A0E007F10F0207F1100107F58C73A3F55D
:100E70008A731868FFF7A0FC034683F00103DBB216
:100E8000002B1FD007F58C73A3F215131A7849496C
:100E900013465B0013445B000B4402331B7807F5D9
:100EA0008C72A2F21512127843F00203D8B24149B3
:100EB00013465B0013445B000B44023302461A7076
:100EC00000236FE007F58C73A3F584739B7807F517
:100ED0008C72A2F2151212789A421FD007F58C7309
:100EE000A3F215131A78334913465B0013445B00D1
:100EF0000B4402331B7807F58C72A2F2151212789C
:100F000043F00203D8B22B4913465B0013445B0045
:100F10000B44023302461A70002343E007F58C733A
:100F2000A3F215131A7807F58C73A3F58473187957
:100F3000204913465B0013445B000B440133024617
:100F40001A7007F58C73A3F215131A781949134612
:100F50005B0013445B000B441B7807F58C72A2F214
:100F60001512127843F00103D8B2124913465B0000
:100F700013445B000B4402461A7007F58C73A3F20E
:100F800015131A780B4913465B0013445B000B449E
:100F900001331B78002B04D0054B05221A70002367
:100FA00000E00123184607F58C77BD4680BD00BFE1
:100FB000DC0200206007002080B5C6B002AF07F554
:100FC0008873A3F58673186007F58873A3F5867395
:100FD0001B68002B0AD007F58873A3F586731B687E
:100FE0001B7A83F00103DBB2002B04D0824B032277
:100FF0001A700123FBE0002387F80F3197F80F31B7
:101000005A1C87F80F211A4607F58873A3F58273D7
:1010100007219954002387F80E3198E097F80E21A4
:10102000764913465B0013445B000B441B7803F0C6
:101030000103002B00F0858097F80E31DB00704A29
:101040001344C7F8083197F80F315A1C87F80F215D
:10105000194607F58873A3F5827397F80E215A5441
:1010600097F80F315A1C87F80F211A46D7F8083124
:10107000197907F58873A3F582739954D7F8083165
:10108000B3F9001097F80F315A1C87F80F211A4650
:10109000C9B207F58873A3F582739954D7F808315C
:1010A000B3F900301B1219B297F80F315A1C87F8A8
:1010B0000F211A46C9B207F58873A3F582739954B4
:1010C000D7F80831D98897F80F315A1C87F80F21C3
:1010D0001A46C9B207F58873A3F582739954D7F8F5
:1010E0000831DB881B0A99B297F80F315A1C87F830
:1010F0000F211A46C9B207F58873A3F58273995474
:10110000D7F80831598897F80F315A1C87F80F2102
:101110001A46C9B207F58873A3F582739954D7F8B4
:1011200008315B881B0A99B297F80F315A1C87F86F
:101130000F211A46C9B207F58873A3F58273995433
:1011400000E000BF97F80E31013387F80E3197F8B1
:101150000E31142B7FF662AF07F58873A3F5867006
:1011600097F80F31019307F10C0300938323292291
:10117000FE210068FFF784FB034683F00103DBB226
:10118000002B33D0002387F80D3129E097F80D218B
:101190001A4913465B0013445B000B441B7803F0B1
:1011A0000103002B17D097F80D21144913465B005B
:1011B00013445B000B4402331B7897F80D2143F076
:1011C0001003D8B20D4913465B0013445B000B4477
:1011D000023302461A7097F80D31013387F80D314A
:1011E00097F80D31152BD1D9012300E000231846C3
:1011F00007F58877BD4680BDDC020020600700202F
:10120000E007002080B5CCB002AF07F59473A3F5DA
:101210009273186007F59473A3F592731B68002B03
:101220000AD007F59473A3F592731B681B7A83F0B9
:101230000103DBB2002B04D09A4B03221A70012366
:101240002AE1002387F8273197F827315A1C87F8BD
:1012500027211A4607F59473A3F580730221995448
:10126000002387F8263120E097F826218E4913467F
:101270005B0013445B000B441B7803F00103002B5D
:101280000DD097F827315A1C87F82721194607F502
:101290009473A3F5807397F826215A5400E000BF99
:1012A00097F82631013387F8263197F82631142B29
:1012B000DAD907F59473A3F5927097F82731019363
:1012C00007F12803009382233822FE210068FFF7EC
:1012D000D7FA034683F00103DBB2002B33D000239F
:1012E00087F8253129E097F825216F4913465B00DF
:1012F00013445B000B441B7803F00103002B17D051
:1013000097F82521684913465B0013445B000B44A2
:1013100002331B7897F8252143F00803D8B26249BD
:1013200013465B0013445B000B44023302461A7001
:1013300097F82531013387F8253197F82531152B9A
:10134000D1D90123A8E0002387F824319EE097F843
:101350002421554913465B0013445B000B441B7862
:1013600003F00103002B00F08B8007F10F0207F15F
:10137000100107F59473A3F592731868FFF71CFA30
:10138000034683F00103DBB2002B19D097F8242128
:10139000454913465B0013445B000B4402331B7842
:1013A00097F8242143F04003D8B23F4913465B002D
:1013B00013445B000B44023302461A7001236BE0B6
:1013C00007F59473A3F58C739B7897F824219A42C0
:1013D00019D097F82421344913465B0013445B006D
:1013E0000B4402331B7897F8242163F07F03D8B2B3
:1013F0002D4913465B0013445B000B440233024645
:101400001A70012348E097F8242107F59473A3F597
:101410008C731879244913465B0013445B000B441A
:10142000013302461A7097F824211F4913465B00C6
:1014300013445B000B4401331B78002B04D0194B81
:1014400005221A70012327E007F59473A3F58C7326
:101450005B791A4607F59473A3F58C739B791B028D
:101460009BB213449BB297F8242118B20E4913463D
:101470005B0013445B000B44043302461A8000E017
:1014800000BF97F82431013387F8243197F82431CD
:10149000142B7FF65CAF0023184607F59477BD4602
:1014A00080BD00BFDC0200206007002080B483B054
:1014B00000AF7860034B1B7818460C37BD465DF8CB
:1014C000047B7047DC02002080B483B000AF034689
:1014D000FB71FB79052B1BD801A252F823F000BF4A
:1014E000F9140008FD14000801150008051500088E
:1014F000091500080D150008094B0AE0094B08E022
:10150000094B06E0094B04E0094B02E0094B00E0FF
:10151000094B18460C37BD465DF8047B704700BF89
:10152000F0660108FC6601081867010830670108C9
:1015300048670108646701087C67010880B584B0CA
:1015400000AF3B4600221A605A609A60DA60374B5F
:10155000374A1A60354B4FF400325A60334B002241
:101560009A60324B01221A61304B00229A612F4B54
:10157000002283F820202D4B0022DA622B4B2D4ACB
:101580009A622A4B0022DA60284B0422DA61274B48
:10159000002283F83020254B01225A61234802F0B3
:1015A00043FF0346002B01D001F06CFF00233B609A
:1015B00001237B600723BB603B4619461B4803F0B1
:1015C000E3F80346002B01D001F05CFF01233B60F0
:1015D00002237B603B461946144803F0D5F80346C6
:1015E000002B01D001F04EFF134B3B6003237B60C7
:1015F0000623BB603B4619460C4803F0C5F803467A
:10160000002B01D001F03EFF11233B6004237B60DF
:101610003B461946054803F0B7F80346002B01D0B6
:1016200001F030FF00BF1037BD4680BD88080020A4
:10163000002001400100000F1200001080B58AB0A8
:1016400000AF786007F1140300221A605A609A60B4
:10165000DA601A617B681B682D4A934254D12D4B86
:101660005B6C2C4A43F4807353642A4B5B6C03F429
:1016700080733B613B69274B1B6B264A43F0010398
:101680001363244B1B6B03F00103FB60FB68032314
:101690007B610323BB610023FB6107F1140319463F
:1016A0001D4804F065F81D4B1D4A1A601B4B0022B3
:1016B0005A601A4B00229A60184B0022DA60174BCE
:1016C0004FF480621A61154B4FF400625A61134B5C
:1016D0004FF400529A61114B4FF48072DA610F4B54
:1016E0004FF480321A620D4B00225A620B4803F00D
:1016F00035FC0346002B01D001F0C4FE7B68074A8D
:101700009A63064A7B68936300BF2837BD4680BD55
:10171000002001400038024000000240D0080020B4
:101720001064024080B582B000AF78607B681B68AF
:10173000074A934208D1074B1B68002B04D0054B86
:101740001B6818460CF03EF900BF0837BD4680BD47
:1017500000200140BC6C002080B487B000AF7860EE
:1017600039603B687B617B683B612023FB60BFF392
:101770004F8F00BF0BE00D4A3B69C2F85C32FB683B
:101780003A6913443B617A69FB68D31A7B617B69D0
:10179000002BF0DCBFF34F8F00BFBFF36F8F00BF94
:1017A00000BF1C37BD465DF8047B704700ED00E0CC
:1017B00080B487B000AF786039603B687B617B683C
:1017C0003B612023FB60BFF34F8F00BF0BE00D4A4E
:1017D0003B69C2F86832FB683A6913443B617A6935
:1017E000FB68D31A7B617B69002BF0DCBFF34F8F62
:1017F00000BFBFF36F8F00BF00BF1C37BD465DF851
:10180000047B704700ED00E080B582B000AFFFF7C9
:1018100095FE1A4B1A4A1A60184B04221A73174B7A
:10182000184A5A60154B184A9A60184B1B68134A9D
:1018300013610023FB7112E0FB79124A002122F8A8
:101840001310FB79104A002122F813100B4B0022D1
:101850001A750A4B00225A75FB790133FB71FB792B
:10186000032BE9D9054B5B7DDBB243F00103DAB210
:10187000024B5A7500BF0837BD4680BD30090020B5
:10188000880800206009002068090020BC6C002046
:101890002DE9F04389B000AFF8600B467A60FB7227
:1018A0006B461E46FB685B7DDBB203F00103002B39
:1018B00009D1FB681B7DDBB243F00403DAB2FB689D
:1018C0001A750123C6E0FB68197B0B46013BBB611F
:1018D000CBB20022984691464FF000024FF0000331
:1018E0004FEA491343EAD8634FEA4812CBB20022C9
:1018F0001C4615464FF000024FF000036B0143EA0F
:10190000D46362010B469B000733DB08DB00ADEBC1
:10191000030D6B4603339B089B007B610023FB7721
:1019200007E0FA7F7B69002143F82210FB7F013337
:10193000FB77FB681B7BFA7F9A42F2D30023BB77CD
:1019400062E0FB685A68FB681B7B5B001946104627
:10195000FFF72EFFFB681868FB685968FB681B7B64
:101960001A4602F0A5FD0346002B09D0FB681B7D3B
:10197000DBB243F00103DAB2FB681A75012369E0B8
:10198000FB681B69796818460BF0B6FF0346002B0D
:101990000ED0FB681B7DDBB243F00103DAB2FB68BB
:1019A0001A75FB681B68184602F080FE012351E09F
:1019B000FB681B68184602F079FEFB685A68FB68F2
:1019C0001B7B5B0019461046FFF7C6FE00237B77A2
:1019D00012E0FB685A687B7F5B0013441B8899B256
:1019E0007A7F7B6953F822307A7F19447B6943F808
:1019F00022107B7F01337B77FB681B7B7A7F9A42C7
:101A0000E7D3BB7F0133BB77BA7FFB7A9A4298D387
:101A100000233B7710E03A7F7B6953F82220FB7A62
:101A2000B2FBF3F1FB689A683B7F5B0013448AB218
:101A30001A803B7F01333B77FB681B7B3A7F9A42DE
:101A4000E9D3FB685B7DDBB243F00203DAB2FB68EB
:101A50005A750023B54618462437BD46BDE8F083C5
:101A600080B582B000AF364B5B7DDBB203F0020382
:101A7000002B09D1022201213148FFF709FF03465B
:101A8000012B01D1002357E02E4BDB88FB80FB8824
:101A9000002B10D12A4B5B7DDBB203F00203002B3D
:101AA00007D0274B1B7DDBB243F00803DAB2244B8F
:101AB0001A75002340E0244B1B685B681B0EDBB2E9
:101AC00003F00303DBB2C3F10603DBB25B007B71FF
:101AD000FA887B79C3F10C0302FA03F3FB801B4BFA
:101AE0001B887B807B8840F6E44202FB03F3FA8884
:101AF000520892B21A44FB88B2FBF3F33B803B8856
:101B0000B3F5166F09D8124B1B78DBB243F0010313
:101B1000DAB20F4B1A703B880EE03B88B3F5616F69
:101B200009D30B4B1B78DBB243F00203DAB2084B4C
:101B30001A703B8800E03B8818460837BD4680BDD8
:101B40003009002068090020880800204AF4F01FAE
:101B50007409002080B586B000AF0346FB80494B76
:101B60005B7DDBB203F00203002B09D102220121CD
:101B70004448FFF78DFE0346012B01D100237DE091
:101B8000414B9B88FB82FB8A002B0ED13D4B5B7D3A
:101B9000DBB203F00203002B07D03A4B1B7DDBB214
:101BA00043F01003DAB2374B1A75384B1B685B6889
:101BB0001B0EDBB203F00303DBB2C3F10603DBB29F
:101BC0005B007B75FA8A7B7DC3F10C0302FA03F399
:101BD00019467B7D012202FA03F3013B03FB01F16D
:101BE000FA8813461B039B1A03F272639B08284A68
:101BF000A2FB03235B095B081944FA8813461B0305
:101C00009B1A03F272639B08214AA2FB03235B0920
:101C1000B1FBF3F3FB821F4B1B887B821E4B1B889F
:101C20003B823A8A7B8AD31AFB81FA8A7B8AD31A4F
:101C30001A4613469B0013441B011A46FB895B0896
:101C40009BB21A44FB89B2FBF3F3DBB21E337B7306
:101C50007B7B772B11D9114B1B780133DAB20F4BF9
:101C60001A700E4B1B78052B07D90D4B1B78DBB276
:101C700043F00403DAB20A4B1A707B7B184618371C
:101C8000BD4680BD3009002068090020880800207A
:101C90009F00EE094CF4F01F4EF4F01F7309002072
:101CA0007409002080B582B000AF104B1B6B0F4A47
:101CB00043F4800313630D4B1B6B03F480037B60C1
:101CC0007B6800220521382003F010F9382003F04A
:101CD00029F9002207213A2003F008F93A2003F0FD
:101CE00021F900BF0837BD4680BD00BF0038024063
:101CF00080B500AF194812F047FE194B1B889BB204
:101D00001946184812F0D8FD174B1B68194617489A
:101D100012F0D2FD164B1B681946164812F0CCFD86
:101D2000154B1B7DDBB21946144812F0C5FD144B50
:101D30001B681946134812F0BFFD134812F024FE29
:101D400072B600BF4FF48041104803F0E2FF4FF439
:101D5000FA7002F045FB00BFCCE700BF8C670108BA
:101D6000F8760020AC670108D8000020D067010891
:101D7000DC000020F4670108300900201868010821
:101D8000E27200203C68010860680108000402401B
:101D900080B400AF00BFBD465DF8047B704780B4DF
:101DA00000AF00231846BD465DF8047B7047000075
:101DB00080B500AF024803F0DFFF00BF80BD00BF69
:101DC0003074002080B582B000AF78603960396827
:101DD000034812F071FD00BF0837BD4680BD00BF4B
:101DE000E068010880B500AF254A012101200BF011
:101DF000E7FC0346234A1360234A012101200BF02C
:101E0000DFFC0346214A13601E4B1B680021184665
:101E10000BF072FD1D4B1B68002118460BF06CFD8A
:101E20001B4A012120200BF025FE0346194A1360AE
:101E3000194A002119480BF0CBFB0346184A1360DE
:101E4000184A002118480BF0C3FB0346174A1360D9
:101E5000174A002117480BF0BBFB0346164A1360D4
:101E6000164A002116480BF0B3FB0346154A1360CF
:101E700015480BF053FC0346144A136000BF80BDA5
:101E8000DC6D0108BC6C0020EC6D0108106D0020B9
:101E9000C46D0108486C0020346D0108D11E000893
:101EA00078090020586D0108611F00082C1A0020D5
:101EB0007C6D01088D1F0008E02A0020A06D01083C
:101EC000C91F0008944B0020FC6D0108646D0020C0
:101ED00080B584B000AF78600DF062FC0346FB6013
:101EE000FFF792FC184812F0E7FC0222062117487F
:101EF000FFF7CEFC0346002B01D0FFF7F9FEFFF7FA
:101F0000AFFD03461A46124B1A80114B1B88184628
:101F1000FFF720FE03461A460E4B1A700E4B1B8825
:101F200040F2DC52934203D90C4B80229A6103E0C9
:101F30000A4B4FF400029A6107F10C030221184684
:101F40000DF084FAD1E700BFF868010830090020DD
:101F50007009002072090020680900200004024076
:101F600080B584B000AF78600DF01AFC0346FB60CA
:101F7000054812F009FD07F10C034FF47A71184679
:101F80000DF064FAF7E700BF1869010880B584B066
:101F900000AF78600DF004FC0346FB6000F0F2FF38
:101FA0000346002B01D0FFF7A3FE064812F084FC85
:101FB00001F020F807F10C03012118460DF046FA54
:101FC00000BFF5E73C69010880B58AB000AF7860D2
:101FD0000DF0E6FB0346BB6181498248FEF74AFBF0
:101FE000034683F00103DBB2002B03D07E4812F0DE
:101FF00063FC02E07D4812F05FFC002387F8273085
:102000001DE097F8273019467648FEF7BDFE0346D7
:1020100083F00103DBB2002B06D097F82730194676
:10202000734812F049FC05E097F8273019467148CB
:1020300012F042FC97F82730013387F8273097F8E1
:102040002730142BDDD96C4A07F10C0307CA03C3F0
:102050001A8040F6FF73BB84002387F823300023E7
:102060003B84002387F82630644B1B78DBB2002BBF
:1020700000F09A80614B00221A70614A97F8233071
:10208000137597F826305B0028333B4433F91C2C3A
:102090005B4B1A825A4ABB8C5382594A3B8CD3827F
:1020A000574A97F8233082F8243097F82630C3F146
:1020B00004035B0028333B4433F91C2C504B1A8437
:1020C0004F4ABB8C53844E4A3B8CD3844C4A97F87E
:1020D000233082F8443097F82630C3F104035B00C4
:1020E00028333B4433F91C2C454BA3F84020444A89
:1020F000BB8CA2F84230424A3B8CA2F84630404AA0
:1021000097F8233082F87C3097F826305B0028332C
:102110003B4433F91C2C3A4BA3F87820384ABB8C4B
:10212000A2F87A30364A3B8CA2F87E30344A97F8CF
:10213000233082F88C3097F82630C3F104035B001B
:1021400028333B4433F91C2C2D4BA3F888202C4A10
:10215000BB8CA2F88A302A4A3B8CA2F88E302148E8
:10216000FEF72AFF0346002B0ED01E48FFF79EF90C
:102170000346FB77FB7F1846FFF7A6F903461A468E
:10218000FE21204812F098FB97F826305A1C1E4B6F
:1021900083FB02135910D317C91A0B469B000B443B
:1021A000D11A0B4687F826300E48FFF72BF8034666
:1021B000002B0ED00B48FFF779F90346BB77BB7FA6
:1021C0001846FFF781F903461A46FE210D4812F022
:1021D00073FB07F11803022118460DF037F943E7A6
:1021E0004C770020E002002058690108706901085E
:1021F00088690108A0690108D0690108686D00209C
:10220000E0070020B86901086766666680B58EB091
:1022100000AF07F1240300221A605A609A60DA6066
:102220001A61784B1B6B774A43F004031363754BB9
:102230001B6B03F004033B623B6A724B1B6B714ADE
:1022400043F0200313636F4B1B6B03F02003FB6110
:10225000FB696C4B1B6B6B4A43F080031363694B48
:102260001B6B03F08003BB61BB69664B1B6B654A4C
:1022700043F001031363634B1B6B03F001037B61AA
:102280007B69604B1B6B5F4A43F0020313635D4B3A
:102290001B6B03F002033B613B695A4B1B6B594AB2
:1022A00043F008031363574B1B6B03F00803FB60F9
:1022B000FB68544B1B6B534A43F040031363514B71
:1022C0001B6B03F04003BB60BB684E4B1B6B4D4A5E
:1022D00043F0100313634B4B1B6B03F010037B6045
:1022E0007B6800220321484803F0FAFC0122042104
:1022F000454803F0F5FC00220221444803F0F0FCBD
:1023000000224FF48141424803F0EAFC00222021E0
:10231000404803F0E5FC4FF400537B624FF4881310
:10232000BB620023FB6207F124031946374803F020
:102330001FFA05237B620123BB620023FB6200239B
:102340003B6307F1240319462F4803F011FA0223D7
:102350007B620123BB620023FB6203233B6307F123
:1023600024031946284803F003FA02237B62012361
:10237000BB620023FB6200233B6307F12403194681
:10238000224803F0F5F94FF481437B620123BB62DD
:102390000023FB6200233B6307F1240319461C481A
:1023A00003F0E6F920237B620123BB620023FB627A
:1023B00000233B6307F124031946164803F0D8F9BC
:1023C00001237B624FF40413BB620123FB6207F11C
:1023D00024031946104803F0CBF9002204210620FB
:1023E00002F084FD062002F09DFD00220521282038
:1023F00002F07CFD282002F095FD00BF3837BD4675
:1024000080BD00BF003802400014024000080240B6
:1024100000040240001802400010024080B588B05D
:1024200000AF07F10C0300221A605A609A60DA606C
:102430001A612A4B1B6B294A43F004031363274B91
:102440001B6B03F00403BB60BB68244B1B6B234A6C
:1024500043F020031363214B1B6B03F020037B60CD
:102460007B68002203211E4803F03AFC012204216C
:102470001B4803F035FC0523FB6001233B6100236F
:102480007B610023BB6107F10C031946144803F07C
:102490006FF90223FB6001233B6100237B6103236F
:1024A000BB6107F10C0319460D4803F061F90123E4
:1024B000FB604FF404133B6101237B6107F10C03C4
:1024C0001946084803F054F900220421062002F0BE
:1024D0000DFD00BF2037BD4680BD00BF0038024063
:1024E000001402400010024080B584B000AF0346E3
:1024F000FB80FB88012B17D1174B1B685B6A174ABF
:10250000C2F82835164B1B78DBB243F00203DAB26F
:10251000134B1A70124B1B78DBB223F00403DAB2B0
:102520000F4B1A7000F03CF9FB88B3F5005F0ED139
:1025300001F04AFFF8600B4B1B68FA68D31AC82BEE
:1025400005D9084AFB681360074B01221A7000BFC7
:102550001037BD4680BD00BF00770020A06D002071
:10256000E07200206C6D0020686D002080B500AF27
:1025700001F024FCFFF752FF01F07EF800BF80BDA0
:1025800080B500AF062002F0CDFC332002F0CAFC7B
:1025900000BF80BD80B500AF332002F0D1FC062023
:1025A00002F0CEFC00BF80BD80B485B000AF786083
:1025B000144B1B685B6ABB60BB68FB600CE0114B93
:1025C0001B685B6ABB60104B1B78DBB203F0040333
:1025D000002B01D100230EE0BA68FB68D31A7A6899
:1025E0009A42ECD8094B1B889BB243F480639AB2A1
:1025F000064B1A80012318461437BD465DF8047B4C
:10260000704700BF00770020E0720020E2720020D7
:1026100080B485B000AF78600B4B1B685B6ABB6011
:10262000BB68FB6003E0084B1B685B6ABB60BA6871
:10263000FB68D31A7A689A42F5D800BF00BF1437F6
:10264000BD465DF8047B70470077002080B584B0FC
:1026500002AFAA233B713A46391D0223009301239E
:10266000034805F070FE00BF0837BD4680BD00BFBF
:102670004876002080B584B000AF78600B467B8040
:102680007B887A680A490B4806F07CF80346FB739E
:10269000FB7B002B02D0022B02D003E0002302E0E0
:1026A000022300E0012318461037BD4680BD00BF5D
:1026B000C07100204876002080B584B000AF7860FB
:1026C0000B467B807B880B4A79680B4806F05AF8EA
:1026D0000346FB73FB7B002B02D0022B02D003E0EE
:1026E000002302E0022300E0012318461037BD4614
:1026F00080BD00BFA06D00204876002080B483B06C
:1027000000AF144B1B78FB71124B5B78BB71BB792C
:102710001BB21B021AB2FB791BB213431BB2BB8064
:10272000BB884FF6FF72934209D10B4B1B889BB2BB
:1027300043F001039AB2084B1A80002304E0BB88DF
:10274000C3F30E03BB80BB8818460C37BD465DF84B
:10275000047B7047A06D0020E272002080B582B03B
:1027600000AF0346FB800C4AFB88043B9BB2194632
:102770001046FFF77FFF0346012B08D1074B1B884C
:102780009BB243F040039AB2044B1A8000BF00BFD3
:102790000837BD4680BD00BFA46D0020E272002056
:1027A00080B582B000AF414B93F82435DBB2022BE9
:1027B00075D13E4BD3F80034002B70D13C4B1B78C5
:1027C000DBB203F00203002B6BD0394B1B78DBB27A
:1027D00023F00203DAB2364B1A70364B4FF4003254
:1027E0009A61324BD3F82035002B38D02F4B05227D
:1027F00083F824252D4BD3F820359BB219462E485B
:10280000FFF75AFF0346BB712A4B04229A61BB793A
:10281000012B14D1294B1B889BB243F008039AB2B9
:10282000264B1A80214B022283F82425214B0222B9
:102830009A61234B1B680133214A136031E0BB7955
:10284000022B2ED1194B022283F82425194B022288
:102850009A611C4B1B6801331A4A136021E0134B29
:10286000032283F8242504211048FFF703FF0346C1
:10287000FB71FB79012B0BD1104B1B889BB243F0F2
:1028800020039AB20D4B1A800A4B02229A6108E08B
:10289000FB79022B05D1074B02229A6101E000BFB0
:1028A00000E000BF0837BD4680BD00BFA06D00201E
:1028B000E07200200014024040720020E27200200A
:1028C000E4720020E872002080B582B000AFFFF70C
:1028D00015FF0346FB80FB88B3F5806F02D94FF4E8
:1028E0008063FB80FB88032B09D80423FB803D4BCE
:1028F0001B889BB243F004039AB23A4B1A803A4BBE
:1029000093F82435DBB2013B042B57D801A252F8CF
:1029100023F000BF29290008BD2900083329000839
:1029200067290008832900082F4B022283F82425F9
:1029300054E0FB88042B08D92B4B042283F8242570
:10294000FB881846FFF70AFF48E0284B02229A61ED
:10295000254B0022C3F80024234B022283F82425B0
:10296000FFF71EFF3AE0214B02229A61FB881E4AC4
:10297000C2F800341C4B022283F82425FFF710FF15
:102980002CE01A4B02229A61FA88174BD3F82035B3
:102990009A4206D9144BD3F82035134AC2F80034B2
:1029A00003E0FB88104AC2F800340F4B0022C3F842
:1029B00020250D4B022283F824250FE00A4B02222A
:1029C00083F82425094B02229A61064B1B889BB28F
:1029D00043F400739AB2034B1A8000BF00BF08375C
:1029E000BD4680BDE2720020A06D002000140240B0
:1029F00080B582B000AF7860304B1B78DBB203F05B
:102A00000103002B02D04FF0FF3353E02B4B1B7818
:102A1000DBB243F00103DAB2284B1A70FFF7A6FDD0
:102A2000274B4FF480329A61244B1B78DBB243F082
:102A30000403DAB2214B1A70214B02229A61214B16
:102A40000022C3F800241F4B0022C3F820251B4B93
:102A50001B78DBB223F00203DAB2184B1A70194B61
:102A6000012283F82425FFF7F1FD164B022283F89B
:102A7000242542F21070FFF7CBFD114B04229A611E
:102A80000F4B01229A61FFF785FD0F48FFF7C0FD4C
:102A9000FFF776FD0D48FFF787FD0346002B05D0B5
:102AA0000B4811F009FF6FF0030303E0094811F030
:102AB00003FF002318460837BD4680BDE0720020A2
:102AC00000140240A06D0020400D030080841E0011
:102AD000DC690108F869010880B582B000AF786050
:102AE000FFF758FD184B002283F82425174B4FF4AD
:102AF00080329A61154B02229A61154805F0FBFB62
:102B0000144B1B681A6A144B1340002B0FD1114B46
:102B10001B681A6A40F244431340002B07D10D4B47
:102B20001B681A680B4B1B6822F001021A600B4BE2
:102B30001B78DBB223F00103DAB2084B1A7000BF36
:102B40000837BD4680BD00BFA06D002000140240C4
:102B5000487600200077002011111100E07200205B
:102B600080B586B000AFF860B9607A603B60002342
:102B70007B61194BD3F80034002B28D0164BD3F8C7
:102B800000347A689A4215D3134BD3F800341A46AE
:102B90001149B86812F0C5F80F4BD3F800347B61C7
:102BA0000D4BD3F828253B681A600B4B0022C3F865
:102BB000002406E06FF001037B61074B0022C3F89D
:102BC0000024FFF7E7FCFFF7EBFDFFF7D9FC7B697B
:102BD00018461837BD4680BDA06D002080B586B070
:102BE00000AFF860B9607A6000237B61FB68002B5E
:102BF00008D07B68802B05D87B68002B05D0BB688C
:102C0000002B02D16FF001031DE0114BD3F82035EA
:102C1000002B04D00F4B04229A61002313E07A6842
:102C2000B9680D4812F07DF8094A7B68C2F8203572
:102C30007B687B61FFF7AEFC064B4FF480229A6104
:102C4000FFF79EFC7B6918461837BD4680BD00BF64
:102C5000A06D0020001402404072002080B483B0B8
:102C600000AF7860044B1B685B6A18460C37BD46A2
:102C70005DF8047B704700BF0077002080B400AF90
:102C80000A4B0B4A1A60094B0A4A5A60074B0A4A18
:102C90009A60064B094ADA60044B094A1A61034BF1
:102CA0001846BD465DF8047B704700BF706D00207C
:102CB000F1290008D92A0008612B0008DD2B000843
:102CC0005D2C00080000000080B586B002AF78607F
:102CD00039603B681B68022B12D0022B42D8002BB4
:102CE00002D0012B23D03DE0234B1B78DBB243F015
:102CF0000803DAB2204B1A70204811F0DDFD31E0F4
:102D00003B681B7919463B681A693B681B6907EEEB
:102D1000903AF8EE677AB7EEE76A9FED155B85EEBD
:102D2000067B8DED007B164811F0C6FD1AE00823E6
:102D3000FB733B681B79FA7B9A420CD93B681B7981
:102D40001A46104B53F822103B681B791A460E485E
:102D500011F0B2FD05E03B681B7919460B4811F0F4
:102D6000ABFD00BF00BF1037BD4680BDAFF3008094
:102D70000000000080842E41E07200200C6A0108EF
:102D8000286A01080C6E0108546A01086C6A01087F
:102D900080B596B000AF7860396007F108033968F4
:102DA00018460EF0B1FF0346002B08D0184B1B88C5
:102DB0009BB243F400639AB2154B1A8024E03B7A2D
:102DC000062B17D0062B1EDC022B0AD0042B1AD19F
:102DD000104B184607F108035022194611F0A1FFC5
:102DE00012E00D4B184607F108035022194611F066
:102DF00098FF09E0094B184607F1080350221946CD
:102E000011F08FFF00E000BF5837BD4680BD00BF06
:102E1000E27200204073002090730020E0730020D5
:102E2000F0B587B004AF54220021264811F08CFE83
:102E300024480EF01BFF38603B68002B03DA224861
:102E400011F03AFD3AE000237B6030E01D4A7B68D8
:102E50001B011344043319681A4A7B681B0113448D
:102E600001331B781D46174A7B681B01134402334C
:102E70001B781E46134A7B681B0113440C331B88C6
:102E80001C46104A7B681B01134408331B680D481D
:102E90007A68120102441278029201930094334638
:102EA0002A460A4811F008FD7B6801337B60054B18
:102EB00093F850301A467B689342C7DB0C37BD4607
:102EC000F0BD00BFEC720020886A0108A86A010802
:102ED00080B582B000AF0023FB7142E0FA7925494A
:102EE00013465B001344DB000B441B683B603B68EC
:102EF000D8B2FA7913465B001344DB001D4A134431
:102F0000043319460EF0D6FE0346002B26D0FA797C
:102F1000184913465B001344DB000B440C331B6859
:102F2000002B0DD03968144811F0C6FC134B1B88D8
:102F30009BB243F480739AB2104B1A80012314E0C1
:102F400039680F4811F0B8FC0C4B1B889BB243F05A
:102F500080039AB2094B1A80012306E0FB79013302
:102F6000FB71FB79082BB9D9002318460837BD46F9
:102F700080BD00BF00000020E46A0108E27200206A
:102F8000086B010880B582B000AFFFF777FE0346FB
:102F90000022144918460EF0A5FD0346002B09D067
:102FA000114B1B889BB243F010039AB20E4B1A8050
:102FB000012312E000210D480EF042FEFFF788FFCA
:102FC0000346FB71FFF72CFF094B1B78DBB223F0A4
:102FD0000803DAB2064B1A70FB7918460837BD466B
:102FE00080BD00BFC92C0008E2720020912D0008AE
:102FF000E072002080B500AF0D4B1B78DBB203F010
:103000000803002B0ED0FFF763FF0346002B01D00F
:1030100001230AE0064B1B78DBB223F00803DAB287
:10302000034B1A700EF0F8FD0023184680BD00BF58
:10303000E072002080B400AFBFF34F8F00BFBFF33A
:103040006F8F00BF0D4B0022C3F85022BFF34F8F8C
:1030500000BFBFF36F8F00BF084B5B69074A43F4A3
:1030600000335361BFF34F8F00BFBFF36F8F00BFBB
:1030700000BFBD465DF8047B704700BF00ED00E077
:1030800080B400AFBFF34F8F00BFBFF36F8F00BF9F
:10309000074B0022C3F85022BFF34F8F00BFBFF38E
:1030A0006F8F00BF00BFBD465DF8047B704700BF57
:1030B00000ED00E080B485B000AF1F4B0022C3F8E4
:1030C0008420BFF34F8F00BF1B4BD3F880307B6051
:1030D0007B685B0BC3F30E03FB607B68DB08C3F309
:1030E0000903BB60FB685A0143F6E0731340BA68FA
:1030F000920711491343C1F86032BB685A1EBA6087
:10310000002BEFD1FB685A1EFA60002BE5D1BFF30C
:103110004F8F00BF084B5B69074A43F4803353610C
:10312000BFF34F8F00BFBFF36F8F00BF00BF1437D7
:10313000BD465DF8047B704700ED00E080B485B0CB
:1031400000AF1B4B0022C3F88420BFF34F8F00BF9A
:10315000174BD3F880307B607B685B0BC3F30E03A7
:10316000FB607B68DB08C3F30903BB60FB685A01A3
:1031700043F6E0731340BA6892070D491343C1F850
:103180006032BB685A1EBA60002BEFD1FB685A1E32
:10319000FA60002BE5D1BFF34F8F00BFBFF36F8FF5
:1031A00000BF00BF1437BD465DF8047B704700BF09
:1031B00000ED00E080B582B000AFFFF761FFFFF7E0
:1031C000BDFFFFF737FFFFF775FF01F0D3F800F001
:1031D00031F8144B00221A70FFF718F8FEF762FD61
:1031E00000F084FE00F052FE00F0B0FE0E4811F038
:1031F00063FB00F093F80346FB71FB79184600F07F
:10320000DFF803461946094811F056FB084811F04B
:1032100053FB0AF073F9FEF7E5FD0AF0A3F900BFCE
:10322000FDE700BF74090020A06B0108F46B0108E2
:10323000186C010880B594B000AF07F11C0334226C
:103240000021184611F080FC07F1080300221A60E3
:103250005A609A60DA601A6103F014FE2D4B1B6C01
:103260002C4A43F0805313642A4B1B6C03F08053A9
:103270007B607B68284B1B68274A43F440431360FC
:10328000254B1B6803F440433B603B680923FB610B
:103290004FF4A0233B6201233B6302237B634FF483
:1032A0008003BB630823FB634FF4D8733B640223A2
:1032B0007B640923BB640223FB6407F11C031846EB
:1032C00003F040FE0346002B01D000F0DBF803F0D2
:1032D000E9FD0346002B01D000F0D4F80F23BB60BA
:1032E0000223FB6000233B614FF4A0537B614FF44A
:1032F0008053BB6107F108030721184604F0D0F89A
:103300000346002B01D000F0BDF800BF5037BD468A
:1033100080BD00BF003802400070004080B483B020
:1033200000AF264B5B6F002B02DA0123FB7137E005
:10333000224B5B6F03F08043002B02D00223FB7112
:103340002EE01E4B5B6F03F00053002B02D00323D3
:10335000FB7125E0194B5B6F03F08053002B02D00B
:103360000423FB711CE0154B5B6F03F00063002B23
:1033700002D00523FB7113E0104B5B6F03F08063F9
:10338000002B02D00623FB710AE00C4B5B6F03F0AD
:103390000073002B02D00723FB7101E00023FB71B7
:1033A000064B5B6F054A43F080735367FB79184601
:1033B0000C37BD465DF8047B704700BF0038024003
:1033C00080B485B000AF0346FB711C4BFB60FB79FA
:1033D000072B2BD801A252F823F000BFFD330008C1
:1033E00003340008093400080F34000815340008BD
:1033F0001B3400082134000827340008104BFB6000
:1034000014E0104BFB6011E00F4BFB600EE00F4B24
:10341000FB600BE00E4BFB6008E00E4BFB6005E031
:103420000D4BFB6002E00D4BFB6000BFFB681846D4
:103430001437BD465DF8047B704700BF306C01084F
:10344000346C01083C6C01084C6C0108646C010888
:10345000806C0108906C0108C06C0108DC6C0108EC
:1034600080B582B000AF78607B681B68044A9342E5
:1034700001D100F095FF00BF0837BD4680BD00BFF9
:103480000010004080B500AFFEF732FC00BFFDE742
:1034900080B586B000AFF860B9607A6000237B61C8
:1034A00021E0274B1B889BB201335A42C3F3080328
:1034B000C2F3080258BF53427B8200BF214B1B88D6
:1034C0009BB27A8A9A42F9D07B69BA6813441C4A43
:1034D000128892B219781C4B9954194A7B8A13802E
:1034E0007B6901337B617A697B689A42D9DB174B30
:1034F0001B78DBB2002B1ED1144B01221A70114B2A
:103500001B889BB21A46104B9B5C7B740D4B1B882F
:103510009BB201335A42C3F30803C2F3080258BFF7
:1035200053429AB2074B1A8007F111030122194640
:10353000074806F043FB7B6818461837BD4680BD38
:10354000407600204276002040740020447600201F
:10355000D477002080B58AB000AF786007F11403FB
:1035600000221A605A609A60DA601A617B681B68F0
:10357000294A93424CD1294B1B6C284A43F40043FF
:103580001364264B1B6C03F400433B613B69234BE4
:103590001B6B224A43F002031363204B1B6B03F0A7
:1035A0000203FB60FB681D4B1B6B1C4A43F00403CA
:1035B00013631A4B1B6B03F00403BB60BB6804234B
:1035C0007B610223BB610023FB6103233B62072372
:1035D0007B6207F114031946114802F0C9F84FF451
:1035E00040637B610223BB610023FB6103233B62D9
:1035F00006237B6207F1140319460A4802F0B8F863
:1036000000220421332001F071FC332001F08AFCF8
:1036100000BF2837BD4680BD003C00400038024056
:10362000000402400008024080B582B000AF78601C
:103630007B681B680C4A934211D10C4B1B6C0B4AE4
:1036400023F4004313640421094802F03DFA4FF4C7
:103650004061084802F038FA332001F071FC00BFE5
:103660000837BD4680BD00BF003C00400038024026
:10367000000402400008024080B588B000AF424B11
:103680001B6C414A43F4804313643F4B1B6C03F4AF
:103690008043BB60BB683C4B1B6B3B4A43F004035D
:1036A0001363394B1B6B03F004037B607B68364B61
:1036B0001B6B354A43F002031363334B1B6B03F060
:1036C00002033B603B6840F60403FB6002233B615E
:1036D00000237B610323BB610523FB6107F10C031E
:1036E00019462A4802F044F84FF48063FB60022335
:1036F0003B6100237B610323BB610523FB6107F171
:103700000C031946214802F033F8214B214A1A6074
:103710001F4B4FF482725A601D4B00229A601C4B63
:103720004FF4E062DA601A4B02221A61184B012250
:103730005A61174B4FF400729A61154B2022DA61DF
:10374000134B00221A62124B00225A62104B0022C5
:103750009A620F4B0722DA620D4B00221A630C4B60
:1037600000225A630A4804F01BFD0346002B01D0D7
:10377000FFF788FE00220521332001F0B7FB00BFD0
:103780002037BD4680BD00BF00380240000802401F
:1037900048760020003C004080B582B000AF7860E1
:1037A0007B681B68074A934208D1074B1B78DBB242
:1037B00003F00103002B01D0FFF786F800BF0837A4
:1037C000BD4680BD003C0040E072002080B582B064
:1037D00000AF114B1B6C104A43F0805313640E4B27
:1037E0001B6C03F080537B607B680B4B5B6C0A4A5D
:1037F00043F480435364084B5B6C03F480433B60A9
:103800003B6800220F216FF0010001F06FFB00BF49
:103810000837BD4680BD00BF0038024080B58EB07D
:1038200000AF78600023FB620023BB62334B1B6C4C
:10383000324A43F010031364304B1B6C03F0100347
:10384000FB60FB6807F1100207F1140311461846EC
:1038500004F04CF83B6AFB62FB6A002B03D104F0D6
:103860001DF8786304E004F019F803465B007B63FD
:103870007B6B234AA2FB03239B0C013BBB62214BC6
:10388000214A1A601F4B40F2E732DA601D4ABB6AD8
:1038900053601C4B00221A611A4B00229A60194B8C
:1038A00000229A61174805F015FC034687F833306B
:1038B00097F83330002B1BD1124805F0D3FC034698
:1038C00087F8333097F83330002B11D1362001F0D0
:1038D00029FB7B680F2B08D800227968362001F07D
:1038E00005FB0A4A7B68136002E0012387F8333046
:1038F00097F8333018463837BD4680BD003802404F
:1039000083DE1B43AC76002000100040E400002062
:1039100080B400AF00BFFDE780B483B000AF104BB0
:10392000DB6A7B607B6803F00203002B07D00D4B42
:103930001B889BB243F001039AB20A4B1A807B6842
:1039400003F08043002B08D0064B1B889BB243F04A
:1039500002039AB2034B1A8000BF00BFFDE700BF0D
:1039600000ED00E0F876002080B483B000AF164B85
:103970009B6AFB71144B9B6A3B60FB7903F001036C
:10398000002B07D0114B1B889BB243F004039AB263
:103990000E4B1A80FB7903F00203002B07D00B4B70
:1039A0001B889BB243F008039AB2084B1A803B680D
:1039B00003F08003002B04D0034B5B6B044A1360BD
:1039C00000BF00BFFDE700BF00ED00E0F87600207B
:1039D000DC00002080B483B000AF1B4B9B6A7B608F
:1039E0007B6803F48073002B07D0184B1B889BB2B5
:1039F00043F010039AB2154B1A807B6803F40073EE
:103A0000002B07D0114B1B889BB243F020039AB2C6
:103A10000E4B1A807B6803F48063002B07D00B4B9E
:103A20001B889BB243F040039AB2084B1A807B6814
:103A300003F40043002B04D0034B9B6B044A136038
:103A400000BF00BFFDE700BF00ED00E0F8760020FA
:103A5000D800002080B483B000AF2A4B9B6A7B6003
:103A60007B6803F48033002B07D0274B1B889BB265
:103A700043F080039AB2244B1A807B6803F400332E
:103A8000002B07D0204B1B889BB243F480739AB263
:103A90001D4B1A807B6803F48023002B07D01A4B40
:103AA0001B889BB243F400739AB2174B1A807B6851
:103AB00003F40023002B07D0134B1B889BB243F465
:103AC00080639AB2104B1A807B6803F08073002BDE
:103AD00007D00D4B1B889BB243F400639AB20A4B8C
:103AE0001A807B6803F00073002B08D0064B1B88FC
:103AF0009BB243F480539AB2034B1A8000BF00BFBD
:103B0000FDE700BF00ED00E0F876002080B400AFD4
:103B100000BFBD465DF8047B704780B500AF012053
:103B200002F012F900BF80BD80B500AF0348FCF77A
:103B3000AFFF034806F0E4F800BF80BDE0020020BC
:103B40004C77002080B500AF024806F0D9F800BFDE
:103B500080BD00BFD477002080B500AF4FF4005087
:103B600002F0F2F800BF80BD80B500AF024804F05B
:103B7000B3FE00BF80BD00BF4876002080B500AF17
:103B8000024805F0E7FB00BF80BD00BFAC76002017
:103B900080B500AF024801F081FB00BF80BD00BFCF
:103BA000D008002080B500AF024801F077FB00BFCD
:103BB00080BD00BFE478002080B500AF024806F069
:103BC0009FF800BF80BD00BF5C78002080B500AFCB
:103BD000024802F0E1F800BF80BD00BFF8D300202A
:103BE00080B500AF024802F0D7F800BF80BD00BF2B
:103BF000F8D3002080B500AF024802F0CDF800BF36
:103C000080BD00BFF8D3002080B400AF0123184668
:103C1000BD465DF8047B704780B582B000AF786028
:103C2000396011F051F8034616221A604FF0FF3345
:103C300018460837BD4680BD80B582B000AF7860B9
:103C40004FF0FF317868FFF7E7FF00BFFDE780B571
:103C500086B000AFF860B9607A6000237B610AE04B
:103C6000AFF300800146BB685A1CBA60CAB21A7032
:103C70007B6901337B617A697B689A42F0DB7B6800
:103C800018461837BD4680BD80B483B000AF786059
:103C90004FF0FF3318460C37BD465DF8047B704784
:103CA00080B483B000AF786039603B684FF4005255
:103CB0005A60002318460C37BD465DF8047B7047F8
:103CC00080B483B000AF7860012318460C37BD463E
:103CD0005DF8047B704780B485B000AFF860B960D0
:103CE0007A60002318461437BD465DF8047B7047A0
:103CF00080B586B000AF7860144A154BD31A7B614B
:103D00007B693B61134B1B68002B02D1114B124A9C
:103D10001A60104B1A687B6813443A699A4207D2BA
:103D200010F0D2FF03460C221A604FF0FF3309E077
:103D3000084B1B68FB60074B1A687B681344054AF5
:103D40001360FB6818461837BD4680BD0000082088
:103D500000040000FC76002028DA002080B400AFC8
:103D6000064BD3F88830054A43F47003C2F8883014
:103D700000BFBD465DF8047B704700BF00ED00E06A
:103D800080B485B000AF78607B681B68B3F1804F6A
:103D90000BD1094B1B6C084A43F001031364064B1B
:103DA0001B6C03F00103FB60FB6800BF1437BD46CA
:103DB0005DF8047B704700BF0038024080B588B0D2
:103DC00000AF2F4B1B6C2E4A43F0010313642C4BA6
:103DD0001B6C03F001033B603B6807F110030022FA
:103DE0001A605A609A60DA603B1D00221A605A60BD
:103DF0009A60244B4FF080421A6003F04FFD034657
:103E00005B00214AA2FB03239B0C013B1D4A53602C
:103E10001C4B00229A601B4B4FF0FF32DA60194BAB
:103E200000221A61174B00229A61164805F052F9D8
:103E30000346002B01D0FFF725FB4FF480533B6175
:103E400007F1100319460F4805F08CFB0346002BC1
:103E500001D0FFF717FB00237B600023FB603B1DB5
:103E60001946084805F0B0FD0346002B01D0FFF7C6
:103E700009FB044805F086F900BF2037BD4680BD28
:103E8000003802400077002083DE1B4380B500AF7E
:103E9000134B144A1A60124B134A5A60104B0022FB
:103EA0009A600F4B0022DA600D4B00221A610C4B16
:103EB0000C225A610A4B00229A61094B0022DA61F6
:103EC000074B00221A62064B00225A62044805F092
:103ED00027FE0346002B01D0FFF7D4FA00BF80BDB8
:103EE0004C7700200010014040420F0080B500AF29
:103EF000144B154A1A60134B4FF4E1325A60114BC0
:103F000000229A600F4B0022DA600E4B00221A61E9
:103F10000C4B0C225A610B4B00229A61094B002278
:103F2000DA61084B00221A62064B00225A620548E9
:103F300005F0F6FD0346002B01D0FFF7A3FA00BF02
:103F400080BD00BFD47700200048004080B500AF9E
:103F5000144B154A1A60134B4FF4E1325A60114B5F
:103F600000229A600F4B0022DA600E4B00221A6189
:103F70000C4B0C225A610B4B00229A61094B002218
:103F8000DA61084B00221A62064B00225A62054889
:103F900005F0C6FD0346002B01D0FFF773FA00BF02
:103FA00080BD00BF5C7800200014014080B5B2B035
:103FB00000AF786007F1B40300221A605A609A607B
:103FC000DA601A6107F1240390220021184610F0EC
:103FD000BBFD7B681B68884A934274D140237B6297
:103FE0000023BB6607F12403184603F0B1FC034627
:103FF000002B01D0FFF746FA804B5B6C7F4A43F001
:10400000100353647D4B5B6C03F010033B623B6A0F
:104010007A4B1B6B794A43F001031363774B1B6B9D
:1040200003F00103FB61FB694FF4C063C7F8B430D0
:104030000223C7F8B8300023C7F8BC300323C7F801
:10404000C0300723C7F8C43007F1B40319466C48E1
:1040500001F08EFB6B4B6C4A1A606A4B4FF00062AA
:104060005A60684B00229A60664B0022DA60654B0A
:104070004FF480621A61634B00225A61614B002247
:104080009A61604B4FF48072DA615E4B4FF480327C
:104090001A625C4B00225A625A4800F05FFF0346E6
:1040A000002B01D0FFF7EEF97B68564A5A67554A54
:1040B0007B68936300220621252000F017FF25204E
:1040C00000F030FF93E07B681B68504A934245D173
:1040D0004FF480737B6200233B6707F1240318468B
:1040E00003F036FC0346002B01D0FFF7CBF9434B1E
:1040F0001B6C424A43F480231364404B1B6C03F453
:104100008023BB61BB693D4B1B6B3C4A43F00803FA
:1041100013633A4B1B6B03F008037B617B694FF41D
:104120004073C7F8B4300223C7F8B8300023C7F88B
:10413000BC300323C7F8C0300723C7F8C43007F1E9
:10414000B4031946324801F013FB0022082127204E
:1041500000F0CCFE272000F0E5FE48E07B681B68FD
:104160002C4A934243D14FF400637B620023FB67E8
:1041700007F12403184603F0EBFB0346002B01D0A4
:10418000FFF780F91D4B5B6C1C4A43F0200353641E
:104190001A4B5B6C03F020033B613B69174B1B6BB5
:1041A000164A43F004031363144B1B6B03F0040320
:1041B000FB60FB68C023C7F8B4300223C7F8B830EF
:1041C0000023C7F8BC300323C7F8C0300823C7F862
:1041D000C43007F1B40319460F4801F0C9FA0022B0
:1041E0000521472000F082FE472000F09BFE00BF23
:1041F000C837BD4680BD00BF0010014000380240F6
:1042000000000240E4780020406402400048004082
:10421000000C0240001401400008024080B584B048
:1042200000AF78607B681B681D4A934227D11D4B05
:104230001B889AB21C4B1B889BB29A421CD0194B0C
:104240001B889BB21A46194B9B5CFB73154B1B8852
:104250009BB201335A42C3F30803C2F3080258BFAA
:1042600053429AB20F4B1A8007F10F0301221946ED
:104270000F4805F0A3FC02E00E4B00221A707B6889
:104280001A680D4B1B681B689A4204D10A4BDB6805
:10429000184609F097FB00BF1037BD4680BD00BF30
:1042A0000048004042760020407600204074002004
:1042B000D477002044760020E002002080B582B050
:1042C00000AF78607B681A68054B1B681B689A42D0
:1042D00002D10348FCF7DCFB00BF0837BD4680BDB8
:1042E000E002002080B582B000AF78607B681A6879
:1042F000054B1B681B689A4202D10348FCF7C8FBB8
:1043000000BF0837BD4680BDE002002080B483B006
:1043100000AF786000BF0C37BD465DF8047B704786
:10432000DFF834D0FFF71AFD0C480D490D4A002381
:1043300002E0D458C4500433C4188C42F9D30A4A5A
:104340000A4C002301E013600432A242FBD310F0B8
:10435000C1FCFEF72FFF704700000820000000207E
:10436000B802002054720108C002002024DA0020A4
:10437000FEE7000080B500AF084B1B68074A43F416
:1043800080731360032000F0A6FD0F20FFF746FAAC
:10439000FFF71CFA0023184680BD00BF003C024016
:1043A00080B400AF064B1B781A46064B1B681344BB
:1043B000044A136000BFBD465DF8047B704700BF30
:1043C000E80000204479002080B400AF034B1B6854
:1043D0001846BD465DF8047B704700BF4479002055
:1043E00080B584B000AF7860FFF7EEFFB8607B68FF
:1043F000FB60FB68B3F1FF3F05D00A4B1B781A4600
:10440000FB681344FB6000BFFFF7DEFF0246BB689A
:10441000D31AFA689A42F7D800BF00BF1037BD46DA
:1044200080BD00BFE800002080B584B000AF786098
:104430000023FB737B68002B01D1012331E07B68F3
:104440001B6C002B09D17868FDF7F8F87B68002217
:104450005A647B68002283F83C207B681B6C03F065
:104460001003002B16D17B681A6C104B134043F0DD
:1044700002027B681A64786800F0E0FA7B68002228
:104480005A647B681B6C23F0030343F001027B68D2
:104490001A6401E00123FB737B68002283F83C204F
:1044A000FB7B18461037BD4680BD00BFFDEEFFFF09
:1044B00080B586B000AFF860B9607A600023FB7504
:1044C00000233B61FB6893F83C30012B01D10223B0
:1044D000D6E0FB68012283F83C20FB681B689B68E0
:1044E00003F00103012B18D0FB681B689A68FB6876
:1044F0001B6842F001029A60634B1B68634AA2FB8F
:1045000003239A0C13465B0013443B6102E03B69B2
:10451000013B3B613B69002BF9D1FB681B689B6841
:1045200003F00103012B40F09E80FB681A6C584B8E
:10453000134043F48072FB681A64FB681B685B6875
:1045400003F48063002B07D0FB681B6C23F44053FB
:1045500043F48052FB681A64FB681B6C03F48053BD
:10456000B3F5805F06D1FB685B6C23F00602FB6845
:104570005A6402E0FB6800225A64FB68002283F858
:104580003C20FB689B6B434ADA63FB689B6B424AA7
:104590001A64FB689B6B414ADA64FB681B686FF026
:1045A00022021A60FB681B685A68FB681B6842F0AD
:1045B00080625A60FB681B689A68FB681B6842F45B
:1045C00080729A60FB68986BFB681B684C331946D5
:1045D000BA687B6800F070FD0346FB75304B5B6882
:1045E00003F01F03002B0FD1FB681B689B6803F0CF
:1045F0004053002B43D1FB681B689A68FB681B681B
:1046000042F080429A603AE0FB681B68254A934278
:104610000ED1FB681B689B6803F04053002B07D149
:10462000FB681B689A68FB681B6842F080429A60CE
:104630001B4B5B6803F01003002B20D1FB681B6849
:10464000194A93421BD1FB681B689B6803F04053D7
:10465000002B14D1FB681B689A68FB681B6842F04A
:1046600080429A600BE0FB681B6C43F01002FB6811
:104670001A64FB685B6C43F00102FB685A64FB7DC3
:1046800018461837BD4680BDE000002083DE1B437E
:10469000FEF8FFFF314C0008EB4C0008074D000806
:1046A00000230140002001400022014080B584B079
:1046B00000AF78600023FB737B6893F83C30012BDC
:1046C00001D1022346E07B68012283F83C207B680D
:1046D0001B689A687B681B6822F001029A607B68FD
:1046E0001B689B6803F00103002B2ED17B681B68BD
:1046F0009A687B681B6822F480729A607B689B6B67
:1047000093F83530DBB2022B0FD17B689B6B1846D8
:1047100000F032FD0346FB73FB7B002B05D07B686A
:104720001B6C43F040027B681A647B681B685A6804
:104730007B681B6822F080625A607B681A6C074BAA
:10474000134043F001027B681A647B68002283F8FF
:104750003C20FB7B18461037BD4680BDFEEEFFFFB8
:1047600080B483B000AF786000BF0C37BD465DF801
:10477000047B704780B483B000AF786000BF0C3713
:10478000BD465DF8047B704780B485B000AF7860AB
:1047900039600023FB607B6893F83C30012B01D12A
:1047A00002233AE17B68012283F83C203B681B68C6
:1047B000092B3AD93B681B68B3F1004F35D07B68B1
:1047C0001B68D9683B681B689BB21A4613465B009E
:1047D00013441E3B072202FA03F3DA437B681B688B
:1047E0000A40DA603B681B688F4A93420AD17B68B3
:1047F0001B68D9683B689B681A067B681B680A437C
:10480000DA6039E07B681B68D9683B689A683B6866
:104810001B689BB2184603465B0003441E3B9A404C
:104820007B681B680A43DA6026E07B681B681969AD
:104830003B681B689BB21A4613465B00134403F0A7
:104840001F03072202FA03F3DA437B681B680A405E
:104850001A617B681B6819693B689A683B681B682A
:104860009BB2184603465B00034403F01F039A40C3
:104870007B681B680A431A613B685B68062B24D877
:104880007B681B68596B3B685A6813469B0013444E
:10489000053B1F2202FA03F3DA437B681B680A40D8
:1048A0005A637B681B68596B3B681B689BB2184650
:1048B0003B685A6813469B001344053B00FA03F219
:1048C0007B681B680A435A634CE03B685B680C2BAF
:1048D00024D87B681B68196B3B685A6813469B0099
:1048E0001344233B1F2202FA03F3DA437B681B685D
:1048F0000A401A637B681B68196B3B681B689BB294
:1049000018463B685A6813469B001344233B00FA41
:1049100003F27B681B680A431A6323E07B681B6809
:10492000D96A3B685A6813469B001344413B1F22D7
:1049300002FA03F3DA437B681B680A40DA627B6899
:104940001B68D96A3B681B689BB218463B685A686B
:1049500013469B001344413B00FA03F27B681B683B
:104960000A43DA627B681B68304A93420AD13B688B
:104970001B68B3F1004F05D12D4B5B682C4A23F423
:10498000400353607B681B68284A93420FD13B6801
:104990001B68122B0BD1264B5B68254A23F40003BE
:1049A0005360234B5B68224A43F4800353607B6867
:1049B0001B681E4A93422BD13B681B681A4A9342DC
:1049C00003D03B681B68112B22D1194B5B68184A36
:1049D00023F480035360164B5B68154A43F40003CD
:1049E00053603B681B68104A934211D1114B1B68FE
:1049F000114AA2FB03239A0C13469B0013445B004D
:104A0000FB6002E0FB68013BFB60FB68002BF9D117
:104A10007B68002283F83C20002318461437BD46EB
:104A20005DF8047B704700BF1200001000200140B9
:104A300000230140E000002083DE1B4380B483B0EC
:104A400000AF7860784B5B68774A23F4403353605B
:104A5000754B5A687B685B68734913434B607B688E
:104A60001B685A687B681B6822F480725A607B68F6
:104A70001B6859687B681B691A027B681B680A43BC
:104A80005A607B681B685A687B681B6822F040721A
:104A90005A607B681B6859687B689A687B681B68EA
:104AA0000A435A607B681B689A687B681B6822F41B
:104AB00000629A607B681B6899687B68DA687B682B
:104AC0001B680A439A607B689B6A584A934222D0CB
:104AD0007B681B689A687B681B6822F070629A602A
:104AE0007B681B6899687B689A6A7B681B680A43C5
:104AF0009A607B681B689A687B681B6822F040524A
:104B00009A607B681B6899687B68DA6A7B681B68B7
:104B10000A439A600FE07B681B689A687B681B6891
:104B200022F070629A607B681B689A687B681B68D9
:104B300022F040529A607B681B689A687B681B6809
:104B400022F002029A607B681B6899687B689B6907
:104B50005A007B681B680A439A607B6893F8203090
:104B6000002B1BD07B681B685A687B681B6842F46B
:104B700000625A607B681B685A687B681B6822F475
:104B800060425A607B681B6859687B685B6A013BBE
:104B90005A037B681B680A435A6007E07B681B68FE
:104BA0005A687B681B6822F400625A607B681B6845
:104BB000DA6A7B681B6822F47002DA627B681B6821
:104BC000D96A7B68DB69013B1A057B681B680A436D
:104BD000DA627B681B689A687B681B6822F4007243
:104BE0009A607B681B6899687B6893F830305A023A
:104BF0007B681B680A439A607B681B689A687B68BD
:104C00001B6822F480629A607B681B6899687B68E5
:104C10005B699A027B681B680A439A6000BF0C3785
:104C2000BD465DF8047B7047002301400100000F82
:104C300080B584B000AF78607B689B6BFB60FB68DD
:104C40001B6C03F05003002B3CD1FB681B6C43F43E
:104C50000072FB681A64FB681B689B6803F0405392
:104C6000002B2BD1FB689B69002B27D1FB681B68AD
:104C7000DB6A03F47003002B06D0FB681B689B689B
:104C800003F48063002B19D1FB681B685A68FB682A
:104C90001B6822F020025A60FB681B6C23F48072B0
:104CA000FB681A64FB681B6C03F48053002B05D16E
:104CB000FB681B6C43F00102FB681A64F868FCF7A0
:104CC00031FD0EE0FB681B6C03F01003002B03D0DA
:104CD000F868FFF74FFD04E0FB689B6BDB6C7868BE
:104CE000984700BF1037BD4680BD80B584B000AF87
:104CF00078607B689B6BFB60F868FFF731FD00BF55
:104D00001037BD4680BD80B584B000AF78607B6849
:104D10009B6BFB60FB6840221A64FB685B6C43F092
:104D20000402FB685A64F868FFF724FD00BF1037DF
:104D3000BD4680BD80B485B000AF78607B6803F06D
:104D40000703FB600B4BDB68BB60BA684FF6FF03E1
:104D50001340BB60FB681A02BB681A43064B13433F
:104D6000BB60044ABB68D36000BF1437BD465DF822
:104D7000047B704700ED00E00000FA0580B400AF4E
:104D8000044BDB681B0A03F007031846BD465DF8B9
:104D9000047B704700ED00E080B483B000AF0346B1
:104DA000FB7197F90730002B0BDBFB7903F01F0237
:104DB000074997F907305B09012000FA02F241F830
:104DC000232000BF0C37BD465DF8047B704700BF51
:104DD00000E100E080B483B000AF0346FB7197F9B7
:104DE0000730002B12DBFB7903F01F020A4997F909
:104DF00007305B09012000FA02F2203341F823203A
:104E0000BFF34F8F00BFBFF36F8F00BF00BF0C37E2
:104E1000BD465DF8047B704700E100E080B483B0DC
:104E200000AF03463960FB7197F90730002B0ADBAE
:104E30003B68DAB20C4997F907301201D2B20B4441
:104E400083F800230AE03B68DAB20849FB7903F0F3
:104E50000F03043B1201D2B20B441A7600BF0C3789
:104E6000BD465DF8047B704700E100E000ED00E026
:104E700080B489B000AFF860B9607A60FB6803F075
:104E80000703FB61FB69C3F10703042B28BF04235D
:104E9000BB61FB690433062B02D9FB69033B00E0CD
:104EA00000237B614FF0FF32BB6902FA03F3DA4360
:104EB000BB681A407B699A404FF0FF317B6901FA69
:104EC00003F3D9437B680B40134318462437BD4690
:104ED0005DF8047B704780B582B000AF7860786879
:104EE000FFF728FF00BF0837BD4680BD80B586B0FC
:104EF00000AF0346B9607A60FB7300237B61FFF764
:104F00003DFF78617A68B9687869FFF7B1FF0246BA
:104F100097F90F3011461846FFF780FF00BF18378A
:104F2000BD4680BD80B582B000AF0346FB7197F9E6
:104F300007301846FFF730FF00BF0837BD4680BD79
:104F400080B582B000AF0346FB7197F90730184671
:104F5000FFF740FF00BF0837BD4680BD80B586B073
:104F600000AF786000237B61FFF72EFA38617B6821
:104F7000002B01D1012399E07B68022283F83520C0
:104F80007B68002283F834207B681B681A687B6882
:104F90001B6822F001021A600FE0FFF715FA0246C3
:104FA0003B69D31A052B08D97B6820225A657B6898
:104FB000032283F83520032378E07B681B681B6895
:104FC00003F00103002BE8D17B681B681B687B6141
:104FD0007A69384B13407B617B685A687B689B68B1
:104FE0001A437B68DB681A437B681B691A437B683A
:104FF0005B691A437B689B691A437B68DB691A43C8
:105000007B681B6A13437A6913437B617B685B6A25
:10501000042B07D17B68DA6A7B681B6B13437A69C0
:1050200013437B617B681B687A691A607B681B6825
:105030005B697B617B6923F007037B617B685B6A4B
:105040007A6913437B617B685B6A042B17D17B68A9
:105050009B6A7A6913437B617B68DB6A002B0ED005
:10506000786800F009FB0346002B08D07B684022DB
:105070005A657B68002283F83520012316E07B689F
:105080001B687A695A61786800F0C0FA0346FB60D1
:105090007B68DB6D3F229A40FB689A607B68002248
:1050A0005A657B68012283F835200023184618379B
:1050B000BD4680BD3F8010E080B586B000AFF8608F
:1050C000B9607A603B600023FB75FB689B6D3B61B8
:1050D000FB6893F83430012B01D1022348E0FB68D0
:1050E000012283F83420FB6893F83530DBB2012BC2
:1050F00037D1FB68022283F83520FB6800225A650D
:105100003B687A68B968F86800F052FAFB68DB6DB2
:105110003F229A403B699A60FB681B681A68FB68EB
:105120001B6842F016021A60FB681B685A69FB682C
:105130001B6842F080025A61FB681B6C002B07D091
:10514000FB681B681A68FB681B6842F008021A605B
:10515000FB681B681A68FB681B6842F001021A6052
:1051600005E0FB68002283F834200223FB75FB7DF9
:1051700018461837BD4680BD80B584B000AF786052
:105180007B689B6DFB60FFF71FF9B8607B6893F845
:105190003530DBB2022B08D07B6880225A657B68F1
:1051A000002283F83420012352E07B681B681A68D0
:1051B0007B681B6822F016021A607B681B685A69BC
:1051C0007B681B6822F080025A617B681B6C002B95
:1051D00003D17B689B6C002B07D07B681B681A6827
:1051E0007B681B6822F008021A607B681B681A68DB
:1051F0007B681B6822F001021A6013E0FFF7E4F8F5
:105200000246BB68D31A052B0CD97B6820225A654D
:105210007B68032283F835207B68002283F83420E2
:10522000032315E07B681B681B6803F00103002B58
:10523000E4D17B68DB6D3F229A40FB689A607B6813
:10524000012283F835207B68002283F83420002374
:1052500018461037BD4680BD80B483B000AF78607B
:105260007B6893F83530DBB2022B04D07B68802258
:105270005A6501230CE07B68052283F835207B68A2
:105280001B681A687B681B6822F001021A60002301
:1052900018460C37BD465DF8047B704780B586B074
:1052A00000AF78600023BB608E4B1B688E4AA2FB68
:1052B00003239B0A7B617B689B6D3B613B691B6899
:1052C000FB607B68DB6D08229A40FB681340002B73
:1052D0001AD07B681B681B6803F00403002B13D0F3
:1052E0007B681B681A687B681B6822F004021A60DE
:1052F0007B68DB6D08229A403B699A607B685B6D36
:1053000043F001027B685A657B68DB6D01229A409D
:10531000FB681340002B12D07B681B685B6903F0AD
:105320008003002B0BD07B68DB6D01229A403B6928
:105330009A607B685B6D43F002027B685A657B680C
:10534000DB6D04229A40FB681340002B12D07B686F
:105350001B681B6803F00203002B0BD07B68DB6D1E
:1053600004229A403B699A607B685B6D43F00402BB
:105370007B685A657B68DB6D10229A40FB6813409E
:10538000002B43D07B681B681B6803F00803002BCD
:105390003CD07B68DB6D10229A403B699A607B6849
:1053A0001B681B6803F48023002B18D07B681B68E4
:1053B0001B6803F40023002B08D17B681B6C002BB7
:1053C00024D07B681B6C786898471FE07B689B6CD7
:1053D000002B1BD07B689B6C7868984716E07B6835
:1053E0001B681B6803F48073002B07D17B681B6864
:1053F0001A687B681B6822F008021A607B681B6CC5
:10540000002B03D07B681B6C786898477B68DB6D4A
:1054100020229A40FB681340002B00F08F807B68AD
:105420001B681B6803F01003002B00F087807B686B
:10543000DB6D20229A403B699A607B6893F8353097
:10544000DBB2052B36D17B681B681A687B681B684A
:1054500022F016021A607B681B685A697B681B6819
:1054600022F080025A617B681B6C002B03D17B68A1
:105470009B6C002B07D07B681B681A687B681B68D5
:1054800022F008021A607B68DB6D3F229A403B697C
:105490009A607B68012283F835207B68002283F8BC
:1054A00034207B681B6D002B7ED07B681B6D786879
:1054B000984779E07B681B681B6803F48023002B06
:1054C0001DD07B681B681B6803F40023002B0DD1E3
:1054D0007B685B6C002B31D07B685B6C786898478D
:1054E0002CE000BFE0000020B5814E1B7B68DB6B29
:1054F000002B23D07B68DB6B786898471EE07B68C5
:105500001B681B6803F48073002B0FD17B681B683A
:105510001A687B681B6822F010021A607B680122FF
:1055200083F835207B68002283F834207B68DB6BAE
:10553000002B03D07B68DB6B786898477B685B6DDA
:10554000002B32D07B685B6D03F00103002B22D06F
:105550007B68052283F835207B681B681A687B68A6
:105560001B6822F001021A60BB680133BB607A69D4
:105570009A4207D37B681B681B6803F00103002B6A
:10558000F2D100E000BF7B68012283F835207B6800
:10559000002283F834207B68DB6C002B05D07B680D
:1055A000DB6C7868984700E000BF1837BD4680BDC7
:1055B00080B485B000AFF860B9607A603B60FB688A
:1055C0001B681A68FB681B6822F480221A60FB685B
:1055D0001B683A685A60FB689B68402B08D1FB68DF
:1055E0001B687A689A60FB681B68BA68DA6007E033
:1055F000FB681B68BA689A60FB681B687A68DA60A7
:1056000000BF1437BD465DF8047B704780B485B099
:1056100000AF78607B681B68DBB2103B134AA2FBCB
:1056200003231B09FB60124AFB6813441B781A46CC
:105630007B68DA65FB68032B08D97B681B681A4610
:105640000C4B13401A1D7B689A6506E07B681B684B
:105650001A46084B13407A6893657B689B6D184621
:105660001437BD465DF8047B704700BFABAAAAAAF9
:10567000446E010800FCFFFF80B485B000AF786085
:105680000023FB737B689B6ABB607B689B69002B74
:105690001FD1BB68032B56D801A252F823F000BFDC
:1056A000B1560008C3560008B15600084757000815
:1056B0007B68DB6A03F08073002B46D00123FB7309
:1056C00043E07B68DB6AB3F1C07F40D10123FB7309
:1056D0003DE07B689B69B3F5005F21D1BB68032B7C
:1056E00037D801A252F823F0F9560008FF560008F7
:1056F000F9560008115700080123FB7330E07B685E
:10570000DB6A03F08073002B25D00123FB7322E0BA
:105710007B68DB6AB3F1C07F1FD10123FB731CE000
:10572000BB68022B03D9BB68032B03D018E001230D
:10573000FB7315E07B68DB6A03F08073002B0ED0EF
:105740000123FB730BE000BF0AE000BF08E000BFCD
:1057500006E000BF04E000BF02E000BF00E000BFC1
:10576000FB7B18461437BD465DF8047B704700BFCD
:1057700080B489B000AF786039600023FB610023FA
:105780007B6100233B610023BB610023FB6175E16A
:105790000122FB6902FA03F37B613B681B687A69AB
:1057A00013403B613A697B699A4240F064813B68EF
:1057B0005B6803F00303012B05D03B685B6803F0D3
:1057C0000303022B30D17B689B68BB61FB695B00E4
:1057D000032202FA03F3DB43BA691340BB613B685F
:1057E000DA68FB695B0002FA03F3BA691343BB6131
:1057F0007B68BA699A607B685B68BB610122FB6960
:1058000002FA03F3DB43BA691340BB613B685B6890
:105810001B0903F00102FB6902FA03F3BA6913439F
:10582000BB617B68BA695A603B685B6803F003033D
:10583000032B17D07B68DB68BB61FB695B0003222D
:1058400002FA03F3DB43BA691340BB613B689A6811
:10585000FB695B0002FA03F3BA691343BB617B681F
:10586000BA69DA603B685B6803F00303022B23D15B
:10587000FB69DA087B68083253F82230BB61FB69A8
:1058800003F007039B000F2202FA03F3DB43BA691C
:105890001340BB613B681A69FB6903F007039B0077
:1058A00002FA03F3BA691343BB61FB69DA087B6848
:1058B0000832B96943F822107B681B68BB61FB6939
:1058C0005B00032202FA03F3DB43BA691340BB61B6
:1058D0003B685B6803F00302FB695B0002FA03F3B9
:1058E000BA691343BB617B68BA691A603B685B683D
:1058F00003F44033002B00F0BE80664B5B6C654ABE
:1059000043F480435364634B5B6C03F48043FB605C
:10591000FB68614AFB699B08023352F82330BB6184
:10592000FB6903F003039B000F2202FA03F3DB433E
:10593000BA691340BB617B68584A934237D07B6891
:10594000574A934231D07B68564A93422BD07B68AA
:10595000554A934225D07B68544A93421FD07B68B6
:10596000534A934219D07B68524A934213D07B68C2
:10597000514A93420DD07B68504A934207D07B68CE
:105980004F4A934201D1092312E00A2310E0082371
:105990000EE007230CE006230AE0052308E00423B9
:1059A00006E0032304E0022302E0012300E00023D9
:1059B000FA6902F0030292009340BA691343BB6193
:1059C0003549FB699B080233BA6941F823203D4BF6
:1059D0009B68BB613B69DB43BA691340BB613B68B1
:1059E0005B6803F48013002B03D0BA693B6913434F
:1059F000BB61344ABB699360324BDB68BB613B6976
:105A0000DB43BA691340BB613B685B6803F4001376
:105A1000002B03D0BA693B691343BB61294ABB69B8
:105A2000D360284B5B68BB613B69DB43BA691340B9
:105A3000BB613B685B6803F40033002B03D0BA6999
:105A40003B691343BB611F4ABB6953601D4B1B6815
:105A5000BB613B69DB43BA691340BB613B685B6870
:105A600003F48033002B03D0BA693B691343BB6155
:105A7000144ABB691360FB690133FB61FB690F2B9F
:105A80007FF686AE00BF00BF2437BD465DF8047BBD
:105A9000704700BF0038024000380140000002405B
:105AA0000004024000080240000C024000100240C6
:105AB0000014024000180240001C02400020024076
:105AC00000240240003C014080B487B000AF786001
:105AD000396000233B610023FB600023BB6000238F
